:020000040800F2
:100000000018002009190008CD180008D7180008AA
:1000100000000000000000000000000000000000E0
:10002000000000000000000000000000DD180008D3
:100030000000000000000000E7180008F1180008A8
:1000400089190008000000008919000889190008B2
:1000500089190008891900088919000889190008F8
:100060000000000089190008891900088919000892
:100070008919000889190008891900080000000082
:10008000891900080000000000000000891900081C
:100090000000000089190008891900088919000862
:1000A00000000000891900080000000089190008FC
:1000B00089190008000000000000000089190008EC
:1000C000002243088B4274D303098B425FD3030A97
:1000D0008B4244D3030B8B4228D3030C8B420DD3AA
:1000E000FF22090212BA030C8B4202D31212090238
:1000F00065D0030B8B4219D300E0090AC30B8B4276
:1001000001D3CB03C01A5241830B8B4201D38B0323
:10011000C01A5241430B8B4201D34B03C01A5241C8
:10012000030B8B4201D30B03C01A5241C30A8B420B
:1001300001D3CB02C01A5241830A8B4201D38B02F6
:10014000C01A5241430A8B4201D34B02C01A52419A
:10015000030A8B4201D30B02C01A5241CDD2C3090C
:100160008B4201D3CB01C01A524183098B4201D388
:100170008B01C01A524143098B4201D34B01C01A73
:10018000524103098B4201D30B01C01A5241C308EB
:100190008B4201D3CB00C01A524183088B4201D35A
:1001A0008B00C01A524143088B4201D34B00C01A46
:1001B0005241411A00D20146524110467047FFE7B2
:1001C00001B5002000F006F802BDC0460029F7D0B6
:1001D00076E770477047C04610B5064C2378002B71
:1001E00007D1054B002B02D0044800E000BF0123DB
:1001F000237010BD0C00002000000000E41900086E
:10020000044B10B5002B03D00349044800E000BFA5
:1002100010BDC0460000000010000020E4190008D6
:1002200080B500AF074B1A68064B10210A431A60CD
:10023000002000F009F801F025FB00231800BD465E
:1002400080BDC0460020024090B583B000AF78600A
:10025000144B1C68144B1B781900FA239800FFF705
:100260002FFF030019002000FFF72AFF03001800EA
:1002700000F0E1F8031E01D001230FE07B68032B9F
:100280000BD8796801235B420022180000F0BEF809
:10029000064B7A681A60002300E001231800BD466F
:1002A00003B090BD080000200400002000000020E2
:1002B00080B500AF054B1B781A00054B1B68D218A0
:1002C000034B1A60C046BD4680BDC04604000020F6
:1002D0002800002080B500AF024B1B681800BD4607
:1002E00080BDC0462800002090B583B000AF02005A
:1002F0003960FB1D1A70FB1D1B787F2B28D82F4AF5
:10030000FB1D1B785BB29B08C0339B009B58FA1DFA
:100310001278110003220A40D200FF2191400A0006
:10032000D2431A4011003B689B01FF221A40FB1D7B
:100330001B78180003230340DB009A401F48FB1D75
:100340001B785BB29B080A43C0339B001A5031E014
:100350001B4AFB1D1B7819000F230B40083B9B0811
:1003600006339B00D31804331B68FA1D1278110062
:1003700003220A40D200FF2191400A00D2431A40D2
:1003800011003B689B01FF221A40FB1D1B781800DF
:1003900003230340DB009A400948FB1D1B781C0027
:1003A0000F232340083B9B080A4306339B00C318D6
:1003B00004331A60C046BD4603B090BD00E100E0C2
:1003C00000ED00E080B582B000AF78607B685A1E17
:1003D00080235B049A4201D3012310E00A4B7A6820
:1003E000013A5A6001235B4203211800FFF77CFFAA
:1003F000054B00229A60044B07221A600023180064
:10040000BD4602B080BDC04610E000E080B584B0BB
:1004100000AFB9607A600F217B18021C1A70BA68AD
:100420007B181B785BB211001800FFF75DFFC04618
:10043000BD4604B080BD80B582B000AF78607B68F7
:100440001800FFF7BFFF03001800BD4602B080BDD3
:1004500080B586B000AF7860396000237B614FE1E2
:100460003B681B6801217A6991400A001340FB60D8
:10047000FB68002B00D140E13B685B68022B03D096
:100480003B685B68122B23D17B69DA087B680832F2
:100490009200D3583B617B69072213409B000F22D7
:1004A0009A401300DA433B6913403B613B681A6989
:1004B0007B6907210B409B009A4013003A69134364
:1004C0003B617B69DA087B68083292003969D15058
:1004D0007B681B683B617B695B0003229A401300C9
:1004E000DA433B6913403B613B685B6803221A4077
:1004F0007B695B009A4013003A6913433B617B6858
:100500003A691A603B685B68012B0BD03B685B68FB
:10051000022B07D03B685B68112B03D03B685B68FC
:10052000122B30D17B689B683B617B695B000322A7
:100530009A401300DA433B6913403B613B68DA6839
:100540007B695B009A4013003A6913433B617B6807
:100550003A699A607B685B683B6101227B699A40DB
:100560001300DA433B6913403B613B685B681B093E
:1005700001221A407B699A4013003A6913433B6198
:100580007B683A695A607B68DB683B617B695B002A
:1005900003229A401300DA433B6913403B613B68F6
:1005A0009A687B695B009A4013003A6913433B6188
:1005B0007B683A69DA603B685A6880235B051340C0
:1005C00000D19AE0544B9A69534B01210A439A6136
:1005D000514B9B6901221340BB60BB684F4A7B694A
:1005E0009B0802339B009B583B617B6903221340AD
:1005F0009B000F229A401300DA433B6913403B6192
:100600007A689023DB059A4213D07B68444A934270
:100610000DD07B68434A934207D07B68424A93429D
:1006200001D1032306E0052304E0022302E00123B5
:1006300000E000237A6903210A40920093403A695E
:1006400013433B6135497B699B0802339B003A6940
:100650005A50364B1B683B61FB68DA433B691340D9
:100660003B613B685A6880235B02134003D03A69C0
:10067000FB6813433B612D4B3A691A602B4B5B6857
:100680003B61FB68DA433B6913403B613B685A6856
:1006900080239B02134003D03A69FB6813433B61FC
:1006A000224B3A695A60214B9B683B61FB68DA43F5
:1006B0003B6913403B613B685A6880235B031340EE
:1006C00003D03A69FB6813433B61184B3A699A605F
:1006D000164BDB683B61FB68DA433B6913403B61C7
:1006E0003B685A6880239B03134003D03A69FB6838
:1006F00013433B610D4B3A69DA607B6901337B61DF
:100700003B681A687B69DA40131E00D0A8E6C04631
:10071000C046BD4606B080BD00100240000001404A
:100720000004004800080048000C00480004014094
:1007300080B582B000AF78607B68002B01D10123C7
:1007400082E07B6841229B5CDBB2002B07D17B6897
:100750004022002199547B68180000F047FF7B6815
:100760004122242199547B681B681A687B681B68A6
:1007700001218A431A607B685A687B681B68344988
:100780000A401A617B681B689A687B681B6831495C
:100790000A409A607B68DB68012B08D17B689A6805
:1007A0007B681B68802109020A439A6007E07B6826
:1007B0009A687B681B68842109020A439A607B68F7
:1007C000DB68022B04D17B681B68802212015A600F
:1007D0007B681B685A687B681B681F490A435A601C
:1007E0007B681B68DA687B681B681A490A40DA6014
:1007F0007B681A697B685B691A4311007B689B6997
:100800001A027B681B680A43DA607B68D9697B68D7
:100810001A6A7B681B680A431A607B681B681A683F
:100820007B681B6801210A431A607B6800225A64B6
:100830007B684122202199547B6800221A637B68DF
:1008400042220021995400231800BD4602B080BD09
:10085000FFFFFFF0FF7FFFFF0080000280B582B046
:1008600000AF786039607B6841229B5CDBB2202B53
:1008700038D17B6840229B5C012B01D1022332E0FE
:100880007B684022012199547B684122242199549C
:100890007B681B681A687B681B6801218A431A60A1
:1008A0007B681B681A687B681B6811490A401A60DC
:1008B0007B681B6819687B681B683A680A431A6082
:1008C0007B681B681A687B681B6801210A431A60F1
:1008D0007B684122202199547B6840220021995451
:1008E000002300E002231800BD4602B080BDC046D0
:1008F000FFEFFFFF80B584B000AF786039607B68A0
:1009000041229B5CDBB2202B39D17B6840229B5C6F
:10091000012B01D1022333E07B684022012199544D
:100920007B684122242199547B681B681A687B6884
:100930001B6801218A431A607B681B681B68FB6087
:10094000FB68114A1340FB603B681B02FA681343C3
:10095000FB607B681B68FA681A607B681B681A6812
:100960007B681B6801210A431A607B6841222021B1
:1009700099547B68402200219954002300E002230F
:100980001800BD4604B080BDFFF0FFFF80B588B001
:1009900000AF78607B68002B01D1012305E37B6801
:1009A0001B680122134000D18DE0C54B5B680C220F
:1009B0001340042B0ED0C24B5B680C221340082B53
:1009C00016D1BF4B5A68C0235B021A4080235B02DA
:1009D0009A420DD1BA4B1A6880239B02134000D172
:1009E00070E07B685B68002B00D06BE00123DCE2E9
:1009F0007B685B68012B07D1B14B1A68B04B802133
:100A000049020A431A602FE07B685B68002B0CD117
:100A1000AB4B1A68AA4BAB490A401A60A84B1A683C
:100A2000A74BA9490A401A601EE07B685B68052B4A
:100A30000ED1A34B1A68A24B8021C9020A431A6047
:100A40009F4B1A689E4B802149020A431A600BE0B3
:100A50009B4B1A689A4B9B490A401A60984B1A683C
:100A6000974B99490A401A607B685B68002B14D049
:100A7000FFF730FC0300BB6108E0FFF72BFC02002E
:100A8000BB69D31A642B01D903238EE28C4B1A68FD
:100A900080239B021340F0D015E0FFF71BFC0300FE
:100AA000BB6108E0FFF716FC0200BB69D31A642B98
:100AB00001D9032379E2824B1A6880239B021340F9
:100AC000F0D100E0C0467B681B680222134000D1D1
:100AD0006CE07B4B5B680C2213400ED0784B5B685C
:100AE0000C221340082B1FD1754B5A68C0235B02A0
:100AF0001A4080231B029A4216D1714B1B680222B6
:100B0000134005D07B68DB68012B01D001234CE248
:100B10006B4B1B68F822934319007B681B69DA0052
:100B2000674B0A431A6041E07B68DB68002B24D0E6
:100B3000634B1A68624B01210A431A60FFF7CAFB34
:100B40000300BB6108E0FFF7C5FB0200BB69D31AD5
:100B5000022B01D9032328E2594B1B6802221340C0
:100B6000F1D0574B1B68F822934319007B681B692F
:100B7000DA00534B0A431A6018E0514B1A68504B85
:100B800001218A431A60FFF7A5FB0300BB6108E05F
:100B9000FFF7A0FB0200BB69D31A022B01D9032384
:100BA00003E2474B1B6802221340F1D17B681B68AC
:100BB0000822134036D07B68DB69002B19D0404BEC
:100BC0005A6A3F4B01210A435A62FFF783FB030035
:100BD000BB6108E0FFF77EFB0200BB69D31A022B62
:100BE00001D90323E1E1364B5B6A02221340F1D0C5
:100BF00018E0334B5A6A324B01218A435A62FFF79D
:100C000069FB0300BB6108E0FFF764FB0200BB69FE
:100C1000D31A022B01D90323C7E1294B5B6A0222B5
:100C20001340F1D17B681B680422134000D1B5E06A
:100C30001F203B1800221A70214BDA6980235B05C4
:100C4000134010D11E4BDA691D4B802149050A4320
:100C5000DA611B4BDA6980235B051340FB60FB689C
:100C60003B1801221A70194B1A6880235B0013404D
:100C70001AD1164B1A68154B802149000A431A6095
:100C8000FFF728FB0300BB6108E0FFF723FB02002E
:100C9000BB69D31A642B01D9032386E10B4B1A6875
:100CA00080235B001340F0D07B689B68012B0FD141
:100CB000034B1A6A024B01210A431A6236E0C0460E
:100CC00000100240FFFFFEFFFFFFFBFF007000402F
:100CD0007B689B68002B0CD1B64B1A6AB54B01217F
:100CE0008A431A62B34B1A6AB24B04218A431A62CE
:100CF0001CE07B689B68052B0CD1AE4B1A6AAD4B90
:100D000004210A431A62AB4B1A6AAA4B01210A4317
:100D10001A620BE0A74B1A6AA64B01218A431A629A
:100D2000A44B1A6AA34B04218A431A627B689B680E
:100D3000002B14D0FFF7CEFA0300BB6109E0FFF7E8
:100D4000C9FA0200BB69D31A9B4A934201D9032313
:100D50002BE1984B1B6A02221340F0D013E0FFF7FF
:100D6000B9FA0300BB6109E0FFF7B4FA0200BB69FE
:100D7000D31A914A934201D9032316E18D4B1B6A82
:100D800002221340F0D11F23FB181B78012B05D141
:100D9000884BDA69874B89490A40DA617B681B68AE
:100DA0001022134063D07B685B69012B2AD1814BF1
:100DB0005A6B804B04210A435A637E4B5A6B7D4B1E
:100DC00001210A435A63FFF785FA0300BB6108E07B
:100DD000FFF780FA0200BB69D31A022B01D9032363
:100DE000E3E0744B5B6B02221340F1D0714B5B6B01
:100DF000F822934319007B689B69DA006D4B0A4324
:100E00005A6334E07B685B69053311D1694B5A6BD7
:100E1000684B04218A435A63664B5B6BF822934309
:100E200019007B689B69DA00624B0A435A631EE033
:100E3000604B5A6B5F4B04210A435A635D4B5A6BFC
:100E40005C4B01218A435A63FFF744FA0300BB61FC
:100E500008E0FFF73FFA0200BB69D31A022B01D961
:100E60000323A2E0534B5B6B02221340F1D17B685A
:100E70001B6A002B00D197E04E4B5B680C2213409D
:100E8000082B00D16BE07B681B6A022B4CD1494BCD
:100E90001A68484B4A490A401A60FFF71BFA0300D8
:100EA000BB6108E0FFF716FA0200BB69D31A022BF8
:100EB00001D9032379E03F4B1A6880239B04134038
:100EC000F0D13C4BDB6A0F22934319007B68DA6A4E
:100ED000384B0A43DA62374B5B683A4A13401900D1
:100EE0007B689A6A7B685B6A1A43324B0A435A6092
:100EF000304B1A682F4B802149040A431A60FFF7D0
:100F0000E9F90300BB6108E0FFF7E4F90200BB69FF
:100F1000D31A022B01D9032347E0264B1A688023FA
:100F20009B041340F0D03FE0224B1A68214B244928
:100F30000A401A60FFF7CEF90300BB6108E0FFF733
:100F4000C9F90200BB69D31A022B01D903232CE093
:100F5000184B1A6880239B041340F0D124E07B686F
:100F60001B6A012B01D101231FE0124B5B687B61DF
:100F7000104BDB6A3B617A69C0235B021A407B68D5
:100F80005B6A9A420ED13B690F221A407B68DB6A8A
:100F90009A4207D17A69F0239B031A407B689B6AC7
:100FA0009A4201D0012300E000231800BD4608B09A
:100FB00080BDC0460010024088130000FFFFFFEF15
:100FC000FFFFFFFEFF7FC2FF80B584B000AF7860F7
:100FD00039607B68002B01D10123B3E05B4B1B68B8
:100FE000012213403A689A4211D9584B1B680122DA
:100FF00093431900554B3A680A431A60534B1B68D8
:10100000012213403A689A4201D001239AE07B689A
:101010001B680222134015D07B681B680422134012
:1010200006D04B4B5A684A4BE021C9000A435A602C
:10103000474B5B68F022934319007B689A68444BE6
:101040000A435A607B681B680122134040D07B68CA
:101050005B68012B07D13E4B1A6880239B0213402B
:1010600014D101236EE07B685B68022B07D1384BFB
:101070001A6880239B04134008D1012362E0344B9B
:101080001B680222134001D101235BE0304B5B68F7
:101090000322934319007B685A682D4B0A435A6018
:1010A000FFF718F90300FB6009E0FFF713F90200EE
:1010B000FB68D31A274A934201D9032342E0244B09
:1010C0005B680C221A407B685B689B009A42ECD1FB
:1010D0001E4B1B68012213403A689A4211D21B4BE7
:1010E0001B68012293431900184B3A680A431A609F
:1010F000164B1B68012213403A689A4201D0012323
:1011000020E07B681B680422134009D0104B5B6809
:10111000114A134019007B68DA680D4B0A435A6084
:1011200000F020F801000A4B5B681B090F221340F6
:101130000A4AD35C0A00DA40094B1A600020FFF724
:1011400083F800231800BD4604B080BD0020024093
:101150000010024088130000FFF8FFFF1C1A00086F
:101160000800002090B58FB000AF1423FB182C4A64
:1011700013CA13C312681A603B1D2A4A13CA13C349
:1011800012681A600023FB620023BB6200237B63AA
:1011900000237B6200233B63234B5B68FB62FB6A9B
:1011A0000C221340042B02D0082B03D02FE01F4B3E
:1011B0003B632FE0FB6A9B0C0F2213401422BA18EA
:1011C000D35C7B62184BDB6A0F2213403A1DD35C61
:1011D000BB62FA6AC0235B021A4080235B029A4218
:1011E00009D1B96A1148FEF76BFF03001A007B6A48
:1011F00053437B6308E0B96A0C48FEF761FF0300C4
:101200001A007B6A53437B637B6B3B6302E0074BB3
:101210003B63C0463B6B1800BD460FB090BDC04657
:10122000FC1900080C1A00080010024000127A0095
:1012300080B586B000AF786000233B610023FB607F
:101240007B681A6880235B02134000D18EE0172070
:101250003B1800221A705F4BDA6980235B0513404C
:1012600010D15C4BDA695B4B802149050A43DA6196
:10127000584BDA6980235B051340BB60BB683B18A1
:1012800001221A70544B1A6880235B0013401AD154
:10129000514B1A68504B802149000A431A60FFF7EE
:1012A00019F803003B6108E0FFF714F802003B69FE
:1012B000D31A642B01D9032387E0474B1A68802394
:1012C0005B001340F0D0434B1A6AC0239B001340CD
:1012D000FB60FB68002B34D07B685A68C0239B00FE
:1012E0001340FA689A422CD03A4B1B6A3B4A13408F
:1012F000FB60384B1A6A374B802149020A431A6255
:10130000344B1A6A334B36490A401A62314BFA6839
:101310001A62FB680122134013D0FEF7DBFF0300C3
:101320003B6109E0FEF7D6FF02003B69D31A2D4A64
:10133000934201D9032348E0264B1B6A0222134043
:10134000F0D0244B1B6A254A134019007B685A6869
:10135000204B0A431A621723FB181B78012B05D177
:101360001C4BDA691B4B20490A40DA617B681B6819
:101370000122134009D0174B1B6B03229343190022
:101380007B689A68134B0A431A637B681B682022A8
:10139000134009D00F4B1B6B1022934319007B683D
:1013A000DA680C4B0A431A637B681A6880239B0235
:1013B000134009D0074B1B6B8022934319007B68B5
:1013C0001A69044B0A431A6300231800BD4606B08D
:1013D00080BDC0460010024000700040FFFCFFFFCF
:1013E000FFFFFEFF88130000FFFFFFEF80B584B012
:1013F00000AF78607B68002B01D101238AE07B6815
:1014000000229A627B685D229B5CDBB2002B07D1D5
:101410007B685C22002199547B68180000F0E6F993
:101420007B685D22022199547B681B681A687B687F
:101430001B6840218A431A607B68DA68E023DB007E
:101440009A4202D90023FB6002E080235B01FB602B
:101450007B68DA68F0231B019A4208D07B68DA685F
:10146000E023DB009A4202D07B6800229A627B680C
:101470001B6B002B0CD17B68DA68E023DB009A42FF
:1014800003D97B6802221A6302E07B6801221A6397
:101490007B685A687B689B681A437B681B691A43A0
:1014A0007B685B691A437B68996980239B000B40CA
:1014B0001A437B68DB691A437B681B6A1A43110075
:1014C0007B689A6A7B681B680A431A607B689B6921
:1014D0001B0C04221A407B685B6A1A437B685B6BB7
:1014E0001A437B68DB681A4311007B681B68FA6843
:1014F0000A435A607B681B68DA697B681B68074986
:101500000A40DA617B6800221A667B685D2201214D
:10151000995400231800BD4604B080BDFFF7FFFFBB
:1015200080B582B000AF104B5A690F4B8021C903C0
:101530000A435A610C4B5A698023DB0313407B60DA
:101540007B68094B5A69084B802189020A435A611A
:10155000054B5A6980239B0213403B603B68C046A1
:10156000BD4602B080BDC0460010024080B500AF4D
:101570001B4B1C4A1A601A4B1B4A5A60184B00221C
:101580009A60174B0122DA60154B00221A61144B46
:1015900000225A61124B00229A61114B0022DA613B
:1015A0000F4B00221A620E4B1800FFF7C1F8031E02
:1015B00001D000F0D8F80A4B00211800FFF74EF9CF
:1015C000031E01D000F0CFF8054B00211800FFF7F3
:1015D00091F9031E01D000F0C6F8C046BD4680BD9B
:1015E0002C000020005400405D3E302090B58BB0B0
:1015F00000AF786014243B19180014231A0000214E
:1016000000F0E8F97B681B681C4A934231D11C4BFF
:101610005A691B4B8021C9030A435A61184B5A6906
:101620008023DB0313403B613B6921007B180322CD
:101630001A607B1812225A607B1801229A607B186C
:101640000322DA607B1801221A617B180D4A190007
:101650001000FEF7FDFE0A4BDA69094B8021890371
:101660000A43DA61064BDA6980239B031340FB606F
:10167000FB68C046BD460BB090BDC046005400405C
:10168000001002400014004880B500AFFEF7C8FD0E
:1016900000F007F8FFF744FFFFF768FF00F068F875
:1016A000FEE790B597B000AF28243B19180030230F
:1016B0001A00002100F08EF91823FB1818001023DF
:1016C0001A00002100F086F93B1D180014231A00AF
:1016D000002100F07FF921007B1802221A607B189C
:1016E0000122DA607B1810221A617B1802221A622A
:1016F0007B18802212025A627B18802252039A625F
:101700007B180022DA627B181800FFF73FF9031EEE
:1017100001D000F028F818217B1807221A607B18E6
:1017200002225A607B1800229A607B180022DA603D
:101730007B1801211800FFF747FC031E01D000F0C1
:1017400012F83B1D20221A603B1D1022DA603B1D5F
:101750001800FFF76DFD031E01D000F004F8C0462D
:10176000BD4617B090BD80B500AFC046BD4680BD38
:1017700080B500AF1B4B1C4A1A601A4B82225200E4
:101780005A60184B00229A60164BE022D200DA60B1
:10179000144B00221A61134B00225A61114B802214
:1017A00092009A610F4B0822DA610E4B00221A62F6
:1017B0000C4B00225A620B4B00229A62094B072203
:1017C000DA62084B00221A63064B08225A63054B63
:1017D0001800FFF70BFE031E01D0FFF7C4FFC04641
:1017E000BD4680BD780000200030014090B58BB030
:1017F00000AF786014243B19180014231A0000214C
:1018000000F0E8F87B681B681C4A934232D11C4BFD
:101810009A691B4B802149010A439A61184B9A69C6
:1018200080235B0113403B613B69154B5A69144BA4
:10183000802189020A435A61114B5A6980239B0215
:101840001340FB60FB6821007B18A0221A607B1804
:1018500002225A607B1800229A607B180322DA6009
:101860007B1800221A617A189023DB0511001800FA
:10187000FEF7EEFDC046BD460BB090BD0030014006
:101880000010024080B582B000AF0F4B9A690E4B3A
:1018900001210A439A610C4B9B69012213407B6032
:1018A0007B68094BDA69084B802149050A43DA61F4
:1018B000054BDA6980235B0513403B603B68C046FB
:1018C000BD4602B080BDC0460010024080B500AFEA
:1018D000C046BD4680BD80B500AFFEE780B500AF15
:1018E000C046BD4680BD80B500AFC046BD4680BD88
:1018F00080B500AFFEF7DCFCC046BD4680BD80B5BC
:1019000000AFC046BD4680BD1348854613480168F8
:10191000090E134A914205D1124813490160134838
:101920001349016013481449144A002302E0D458B3
:10193000C4500433C4188C42F9D3114A114C00230B
:1019400001E013600432A242FBD3FFF7D8FF00F09E
:101950001DF8FFF799FEFEE70018002004000000C4
:101960001F000000181002400100000000000140AC
:1019700000000000000000200C000020341A0008C5
:101980000C000020DC000020FEE7000070B50026FF
:101990000C4D0D4C641BA410A64209D1002600F08A
:1019A00021F80A4D0A4C641BA410A64205D170BD53
:1019B000B300EB5898470136EEE7B300EB58984771
:1019C0000136F2E72C1A00082C1A00082C1A00081D
:1019D000301A000803008218934200D17047197032
:1019E0000133F9E7F8B5C046F8BC08BC9E4670471D
:0C19F000F8B5C046F8BC08BC9E46704725
:1019FC0002030405060708090A0B0C0D0E0F101044
:101A0C000102030405060708090A0B0C0D0E0F1042
:101A1C000000000000000000010203040607080992
:041A2C0001020008AB
:041A3000D9010008D0
:0C1A3400040000000100000000127A0015
:0400000508001909CD
:00000001FF
